:0600650001350001360028
:0703DB00438F03E4FD41859F
:0401A9008C2E8D2FDC
:1001AD008E308F31753204753300E5331533AE3231
:1001BD00700215324E6024438F01052FE52FAE2EB0
:1001CD007002052E14FF0531E531AC30700205309B
:0B01DD0014F5828C83E0FD518580CF7B
:0101E80022F4
:03006B00010A0087
:100075007F01E4F52CF52D7DFC7C778D828C8393B7
:10008500641B70120493B4A50D740293B4C2077473
:100095000393B43D011F30B00AE5EF20E107E5EF1A
:1000A50030E6027F01EF7002910071BF714EBF70A3
:1000B500FB71978F2B7D805158E50A70518510355E
:1000C50085113671188F2BE510F508E50FF509E553
:1000D5000DF52CE50CF52D7D81AF2B5158E50A70FA
:1000E50028E52B647260227E007F0051AD8F2B7D49
:1000F500825158E50A7012AF2DAE2C71DB7E007F60
:1001050000AD2DAC2C31A980BAE4F535F536E50AFC
:0F0115006008FF71678F2BE4F50A75EF12808D7C
:10025800EF64706009EF64726004750A1222ED247D
:100268007E70197B017A0079007D007C045124EFAF
:0C02780065097003EE65086003750A114B
:010284002257
:02000300810377
:02000B0081066C
:02001300810961
:02001B00810C56
:02002300810F4B
:02002B00811240
:02003300811535
:02003B0081182A
:02004B00811E14
:02005300812109
:02005B008124FE
:020063008127F3
:02007300812DDD
:020000002124B9
:05012400758136216425
:1003AD007B007A00790B7C00227B007A0079307D0E
:0203BD0001221B
:10039700752E807B007A00792E7D0171347D0E7178
:0503A700AD51F7AF0BA2
:0103AC00222E
:10031800752E817B007A00792E7D0171347B007AFD
:0B03280000790B7D067C0051F7AF0B45
:0103330022A7
:0402AD008E2E8F2FD3
:1002B10075308271B6713471B67C0051F7AA2EA9DE
:1002C1002F7B017D007C0451F771B67C0051F7AFA3
:0102D10030FC
:0102D2002209
:10034E007BFF7A7B79EB7D1371347B007A00792EFB
:08035E007D017C0051F7AF2E78
:010366002274
:10036700750B848F0C7B007A00790B7D0271347DCD
:080377000171AD51F7AF0B223B
:100334008B318A3289337831E475F001511431E913
:09034400F5993099FDC299DDED37
:01034D00228D
:1002F7008B318A3289333098137831E475F00151A4
:1003070014E5995102C298ED1D70011CED4C70E681
:0103170022C3
:0A0224008B2E8A2F89308C318D3229
:10022E00E4FFFEF533F534C3E5349532E53395310D
:10023E005017782EE475F001511431E9FD51D305B4
:09024E0034E53470E2053380DE72
:010257002284
:1002D300ED6207E4FDEF30E00FEEC313FEEF13FF13
:1002E3006307086306848007EEC313FEEF13FF0D55
:0302F300BD08E261
:0102F60022E5
:100285008F828E83D3E58294FFE58394775018C3DC
:10029500E5839404401175FFA075EF028535B78598
:0802A50036B7EDF0538FFC2287
:0400050053D9BF22EA
:1003BF00110585A72E75A70F71D1113D717F852E60
:0103CF00A786
:0103D000220A
:0A03D10075B78375FF8075EF0222F7
:0D003D0075A40275AF0475E10175E2402263
:10037F00759810758D96538EF4438E08858D8B531B
:08038F00890F438920D28E2260
:107BEB0083130001360102FC0100000400FF770043
:037BFB0025010061
:10012900020075E493A3F8E493A34003F68001F277
:1001390008DFF48029E493A3F85407240CC8C333D7
:10014900C4540F4420C8834004F456800146F6DFA6
:10015900E4800B0102040810204080900065E47ED1
:10016900019360BCA3FF543F30E509541FFEE4939B
:10017900A360010ECF54C025E060A840B8E493A362
:10018900FAE493A3F8E493A3C8C582C8CAC583CA8D
:10019900F0A3C8C582C8CAC583CADFE9DEE780BE45
:01006E000091
:1001E900BB010689828A83E0225002E722BBFE0214
:0901F900E32289828A83E4932247
:10020200BB010689828A83F0225002F722BBFE01DB
:02021200F322D5
:10021400FAE6FB0808E6F925F0F618E6CA3AF622EB
:00000001FF
